{
  "_format": "hh-sol-artifact-1",
  "contractName": "LeSpaceV2",
  "sourceName": "contracts/LeSpaceV2.sol",
  "abi": [
    {
      "inputs": [],
      "name": "AccessControlBadConfirmation",
      "type": "error"
    },
    {
      "inputs": [
        {
          "internalType": "address",
          "name": "account",
          "type": "address"
        },
        {
          "internalType": "bytes32",
          "name": "neededRole",
          "type": "bytes32"
        }
      ],
      "name": "AccessControlUnauthorizedAccount",
      "type": "error"
    },
    {
      "inputs": [
        {
          "internalType": "address",
          "name": "target",
          "type": "address"
        }
      ],
      "name": "AddressEmptyCode",
      "type": "error"
    },
    {
      "inputs": [],
      "name": "CheckpointUnorderedInsertion",
      "type": "error"
    },
    {
      "inputs": [],
      "name": "ECDSAInvalidSignature",
      "type": "error"
    },
    {
      "inputs": [
        {
          "internalType": "uint256",
          "name": "length",
          "type": "uint256"
        }
      ],
      "name": "ECDSAInvalidSignatureLength",
      "type": "error"
    },
    {
      "inputs": [
        {
          "internalType": "bytes32",
          "name": "s",
          "type": "bytes32"
        }
      ],
      "name": "ECDSAInvalidSignatureS",
      "type": "error"
    },
    {
      "inputs": [
        {
          "internalType": "address",
          "name": "implementation",
          "type": "address"
        }
      ],
      "name": "ERC1967InvalidImplementation",
      "type": "error"
    },
    {
      "inputs": [],
      "name": "ERC1967NonPayable",
      "type": "error"
    },
    {
      "inputs": [
        {
          "internalType": "uint256",
          "name": "timepoint",
          "type": "uint256"
        },
        {
          "internalType": "uint48",
          "name": "clock",
          "type": "uint48"
        }
      ],
      "name": "ERC5805FutureLookup",
      "type": "error"
    },
    {
      "inputs": [],
      "name": "ERC6372InconsistentClock",
      "type": "error"
    },
    {
      "inputs": [],
      "name": "ERC721EnumerableForbiddenBatchMint",
      "type": "error"
    },
    {
      "inputs": [
        {
          "internalType": "address",
          "name": "sender",
          "type": "address"
        },
        {
          "internalType": "uint256",
          "name": "tokenId",
          "type": "uint256"
        },
        {
          "internalType": "address",
          "name": "owner",
          "type": "address"
        }
      ],
      "name": "ERC721IncorrectOwner",
      "type": "error"
    },
    {
      "inputs": [
        {
          "internalType": "address",
          "name": "operator",
          "type": "address"
        },
        {
          "internalType": "uint256",
          "name": "tokenId",
          "type": "uint256"
        }
      ],
      "name": "ERC721InsufficientApproval",
      "type": "error"
    },
    {
      "inputs": [
        {
          "internalType": "address",
          "name": "approver",
          "type": "address"
        }
      ],
      "name": "ERC721InvalidApprover",
      "type": "error"
    },
    {
      "inputs": [
        {
          "internalType": "address",
          "name": "operator",
          "type": "address"
        }
      ],
      "name": "ERC721InvalidOperator",
      "type": "error"
    },
    {
      "inputs": [
        {
          "internalType": "address",
          "name": "owner",
          "type": "address"
        }
      ],
      "name": "ERC721InvalidOwner",
      "type": "error"
    },
    {
      "inputs": [
        {
          "internalType": "address",
          "name": "receiver",
          "type": "address"
        }
      ],
      "name": "ERC721InvalidReceiver",
      "type": "error"
    },
    {
      "inputs": [
        {
          "internalType": "address",
          "name": "sender",
          "type": "address"
        }
      ],
      "name": "ERC721InvalidSender",
      "type": "error"
    },
    {
      "inputs": [
        {
          "internalType": "uint256",
          "name": "tokenId",
          "type": "uint256"
        }
      ],
      "name": "ERC721NonexistentToken",
      "type": "error"
    },
    {
      "inputs": [
        {
          "internalType": "address",
          "name": "owner",
          "type": "address"
        },
        {
          "internalType": "uint256",
          "name": "index",
          "type": "uint256"
        }
      ],
      "name": "ERC721OutOfBoundsIndex",
      "type": "error"
    },
    {
      "inputs": [],
      "name": "EnforcedPause",
      "type": "error"
    },
    {
      "inputs": [],
      "name": "ExpectedPause",
      "type": "error"
    },
    {
      "inputs": [],
      "name": "FailedInnerCall",
      "type": "error"
    },
    {
      "inputs": [
        {
          "internalType": "address",
          "name": "account",
          "type": "address"
        },
        {
          "internalType": "uint256",
          "name": "currentNonce",
          "type": "uint256"
        }
      ],
      "name": "InvalidAccountNonce",
      "type": "error"
    },
    {
      "inputs": [],
      "name": "InvalidInitialization",
      "type": "error"
    },
    {
      "inputs": [],
      "name": "NotInitializing",
      "type": "error"
    },
    {
      "inputs": [
        {
          "internalType": "uint8",
          "name": "bits",
          "type": "uint8"
        },
        {
          "internalType": "uint256",
          "name": "value",
          "type": "uint256"
        }
      ],
      "name": "SafeCastOverflowedUintDowncast",
      "type": "error"
    },
    {
      "inputs": [],
      "name": "UUPSUnauthorizedCallContext",
      "type": "error"
    },
    {
      "inputs": [
        {
          "internalType": "bytes32",
          "name": "slot",
          "type": "bytes32"
        }
      ],
      "name": "UUPSUnsupportedProxiableUUID",
      "type": "error"
    },
    {
      "inputs": [
        {
          "internalType": "uint256",
          "name": "expiry",
          "type": "uint256"
        }
      ],
      "name": "VotesExpiredSignature",
      "type": "error"
    },
    {
      "anonymous": false,
      "inputs": [
        {
          "indexed": true,
          "internalType": "address",
          "name": "owner",
          "type": "address"
        },
        {
          "indexed": true,
          "internalType": "address",
          "name": "approved",
          "type": "address"
        },
        {
          "indexed": true,
          "internalType": "uint256",
          "name": "tokenId",
          "type": "uint256"
        }
      ],
      "name": "Approval",
      "type": "event"
    },
    {
      "anonymous": false,
      "inputs": [
        {
          "indexed": true,
          "internalType": "address",
          "name": "owner",
          "type": "address"
        },
        {
          "indexed": true,
          "internalType": "address",
          "name": "operator",
          "type": "address"
        },
        {
          "indexed": false,
          "internalType": "bool",
          "name": "approved",
          "type": "bool"
        }
      ],
      "name": "ApprovalForAll",
      "type": "event"
    },
    {
      "anonymous": false,
      "inputs": [
        {
          "indexed": false,
          "internalType": "uint256",
          "name": "_fromTokenId",
          "type": "uint256"
        },
        {
          "indexed": false,
          "internalType": "uint256",
          "name": "_toTokenId",
          "type": "uint256"
        }
      ],
      "name": "BatchMetadataUpdate",
      "type": "event"
    },
    {
      "anonymous": false,
      "inputs": [
        {
          "indexed": true,
          "internalType": "address",
          "name": "delegator",
          "type": "address"
        },
        {
          "indexed": true,
          "internalType": "address",
          "name": "fromDelegate",
          "type": "address"
        },
        {
          "indexed": true,
          "internalType": "address",
          "name": "toDelegate",
          "type": "address"
        }
      ],
      "name": "DelegateChanged",
      "type": "event"
    },
    {
      "anonymous": false,
      "inputs": [
        {
          "indexed": true,
          "internalType": "address",
          "name": "delegate",
          "type": "address"
        },
        {
          "indexed": false,
          "internalType": "uint256",
          "name": "previousVotes",
          "type": "uint256"
        },
        {
          "indexed": false,
          "internalType": "uint256",
          "name": "newVotes",
          "type": "uint256"
        }
      ],
      "name": "DelegateVotesChanged",
      "type": "event"
    },
    {
      "anonymous": false,
      "inputs": [],
      "name": "EIP712DomainChanged",
      "type": "event"
    },
    {
      "anonymous": false,
      "inputs": [
        {
          "indexed": false,
          "internalType": "uint64",
          "name": "version",
          "type": "uint64"
        }
      ],
      "name": "Initialized",
      "type": "event"
    },
    {
      "anonymous": false,
      "inputs": [
        {
          "indexed": false,
          "internalType": "uint256",
          "name": "_tokenId",
          "type": "uint256"
        }
      ],
      "name": "MetadataUpdate",
      "type": "event"
    },
    {
      "anonymous": false,
      "inputs": [
        {
          "indexed": false,
          "internalType": "address",
          "name": "account",
          "type": "address"
        }
      ],
      "name": "Paused",
      "type": "event"
    },
    {
      "anonymous": false,
      "inputs": [
        {
          "indexed": true,
          "internalType": "bytes32",
          "name": "role",
          "type": "bytes32"
        },
        {
          "indexed": true,
          "internalType": "bytes32",
          "name": "previousAdminRole",
          "type": "bytes32"
        },
        {
          "indexed": true,
          "internalType": "bytes32",
          "name": "newAdminRole",
          "type": "bytes32"
        }
      ],
      "name": "RoleAdminChanged",
      "type": "event"
    },
    {
      "anonymous": false,
      "inputs": [
        {
          "indexed": true,
          "internalType": "bytes32",
          "name": "role",
          "type": "bytes32"
        },
        {
          "indexed": true,
          "internalType": "address",
          "name": "account",
          "type": "address"
        },
        {
          "indexed": true,
          "internalType": "address",
          "name": "sender",
          "type": "address"
        }
      ],
      "name": "RoleGranted",
      "type": "event"
    },
    {
      "anonymous": false,
      "inputs": [
        {
          "indexed": true,
          "internalType": "bytes32",
          "name": "role",
          "type": "bytes32"
        },
        {
          "indexed": true,
          "internalType": "address",
          "name": "account",
          "type": "address"
        },
        {
          "indexed": true,
          "internalType": "address",
          "name": "sender",
          "type": "address"
        }
      ],
      "name": "RoleRevoked",
      "type": "event"
    },
    {
      "anonymous": false,
      "inputs": [
        {
          "indexed": true,
          "internalType": "address",
          "name": "from",
          "type": "address"
        },
        {
          "indexed": true,
          "internalType": "address",
          "name": "to",
          "type": "address"
        },
        {
          "indexed": true,
          "internalType": "uint256",
          "name": "tokenId",
          "type": "uint256"
        }
      ],
      "name": "Transfer",
      "type": "event"
    },
    {
      "anonymous": false,
      "inputs": [
        {
          "indexed": false,
          "internalType": "address",
          "name": "account",
          "type": "address"
        }
      ],
      "name": "Unpaused",
      "type": "event"
    },
    {
      "anonymous": false,
      "inputs": [
        {
          "indexed": true,
          "internalType": "address",
          "name": "implementation",
          "type": "address"
        }
      ],
      "name": "Upgraded",
      "type": "event"
    },
    {
      "inputs": [],
      "name": "CLOCK_MODE",
      "outputs": [
        {
          "internalType": "string",
          "name": "",
          "type": "string"
        }
      ],
      "stateMutability": "view",
      "type": "function"
    },
    {
      "inputs": [],
      "name": "DEFAULT_ADMIN_ROLE",
      "outputs": [
        {
          "internalType": "bytes32",
          "name": "",
          "type": "bytes32"
        }
      ],
      "stateMutability": "view",
      "type": "function"
    },
    {
      "inputs": [],
      "name": "MINTER_ROLE",
      "outputs": [
        {
          "internalType": "bytes32",
          "name": "",
          "type": "bytes32"
        }
      ],
      "stateMutability": "view",
      "type": "function"
    },
    {
      "inputs": [],
      "name": "PAUSER_ROLE",
      "outputs": [
        {
          "internalType": "bytes32",
          "name": "",
          "type": "bytes32"
        }
      ],
      "stateMutability": "view",
      "type": "function"
    },
    {
      "inputs": [],
      "name": "UPGRADER_ROLE",
      "outputs": [
        {
          "internalType": "bytes32",
          "name": "",
          "type": "bytes32"
        }
      ],
      "stateMutability": "view",
      "type": "function"
    },
    {
      "inputs": [],
      "name": "UPGRADE_INTERFACE_VERSION",
      "outputs": [
        {
          "internalType": "string",
          "name": "",
          "type": "string"
        }
      ],
      "stateMutability": "view",
      "type": "function"
    },
    {
      "inputs": [
        {
          "internalType": "address",
          "name": "to",
          "type": "address"
        },
        {
          "internalType": "uint256",
          "name": "tokenId",
          "type": "uint256"
        }
      ],
      "name": "approve",
      "outputs": [],
      "stateMutability": "nonpayable",
      "type": "function"
    },
    {
      "inputs": [
        {
          "internalType": "address",
          "name": "owner",
          "type": "address"
        }
      ],
      "name": "balanceOf",
      "outputs": [
        {
          "internalType": "uint256",
          "name": "",
          "type": "uint256"
        }
      ],
      "stateMutability": "view",
      "type": "function"
    },
    {
      "inputs": [
        {
          "internalType": "uint256",
          "name": "tokenId",
          "type": "uint256"
        }
      ],
      "name": "burn",
      "outputs": [],
      "stateMutability": "nonpayable",
      "type": "function"
    },
    {
      "inputs": [
        {
          "internalType": "uint256",
          "name": "tokenId",
          "type": "uint256"
        },
        {
          "internalType": "bytes",
          "name": "signature",
          "type": "bytes"
        }
      ],
      "name": "claimNFT",
      "outputs": [],
      "stateMutability": "nonpayable",
      "type": "function"
    },
    {
      "inputs": [],
      "name": "clock",
      "outputs": [
        {
          "internalType": "uint48",
          "name": "",
          "type": "uint48"
        }
      ],
      "stateMutability": "view",
      "type": "function"
    },
    {
      "inputs": [
        {
          "internalType": "address",
          "name": "delegatee",
          "type": "address"
        }
      ],
      "name": "delegate",
      "outputs": [],
      "stateMutability": "nonpayable",
      "type": "function"
    },
    {
      "inputs": [
        {
          "internalType": "address",
          "name": "delegatee",
          "type": "address"
        },
        {
          "internalType": "uint256",
          "name": "nonce",
          "type": "uint256"
        },
        {
          "internalType": "uint256",
          "name": "expiry",
          "type": "uint256"
        },
        {
          "internalType": "uint8",
          "name": "v",
          "type": "uint8"
        },
        {
          "internalType": "bytes32",
          "name": "r",
          "type": "bytes32"
        },
        {
          "internalType": "bytes32",
          "name": "s",
          "type": "bytes32"
        }
      ],
      "name": "delegateBySig",
      "outputs": [],
      "stateMutability": "nonpayable",
      "type": "function"
    },
    {
      "inputs": [
        {
          "internalType": "address",
          "name": "account",
          "type": "address"
        }
      ],
      "name": "delegates",
      "outputs": [
        {
          "internalType": "address",
          "name": "",
          "type": "address"
        }
      ],
      "stateMutability": "view",
      "type": "function"
    },
    {
      "inputs": [],
      "name": "eip712Domain",
      "outputs": [
        {
          "internalType": "bytes1",
          "name": "fields",
          "type": "bytes1"
        },
        {
          "internalType": "string",
          "name": "name",
          "type": "string"
        },
        {
          "internalType": "string",
          "name": "version",
          "type": "string"
        },
        {
          "internalType": "uint256",
          "name": "chainId",
          "type": "uint256"
        },
        {
          "internalType": "address",
          "name": "verifyingContract",
          "type": "address"
        },
        {
          "internalType": "bytes32",
          "name": "salt",
          "type": "bytes32"
        },
        {
          "internalType": "uint256[]",
          "name": "extensions",
          "type": "uint256[]"
        }
      ],
      "stateMutability": "view",
      "type": "function"
    },
    {
      "inputs": [
        {
          "internalType": "uint256",
          "name": "tokenId",
          "type": "uint256"
        }
      ],
      "name": "getApproved",
      "outputs": [
        {
          "internalType": "address",
          "name": "",
          "type": "address"
        }
      ],
      "stateMutability": "view",
      "type": "function"
    },
    {
      "inputs": [
        {
          "internalType": "bytes32",
          "name": "_messageHash",
          "type": "bytes32"
        }
      ],
      "name": "getEthSignedMessageHash",
      "outputs": [
        {
          "internalType": "bytes32",
          "name": "",
          "type": "bytes32"
        }
      ],
      "stateMutability": "pure",
      "type": "function"
    },
    {
      "inputs": [
        {
          "internalType": "string",
          "name": "_message",
          "type": "string"
        }
      ],
      "name": "getMessageHash",
      "outputs": [
        {
          "internalType": "bytes32",
          "name": "",
          "type": "bytes32"
        }
      ],
      "stateMutability": "pure",
      "type": "function"
    },
    {
      "inputs": [
        {
          "internalType": "uint256",
          "name": "timepoint",
          "type": "uint256"
        }
      ],
      "name": "getPastTotalSupply",
      "outputs": [
        {
          "internalType": "uint256",
          "name": "",
          "type": "uint256"
        }
      ],
      "stateMutability": "view",
      "type": "function"
    },
    {
      "inputs": [
        {
          "internalType": "address",
          "name": "account",
          "type": "address"
        },
        {
          "internalType": "uint256",
          "name": "timepoint",
          "type": "uint256"
        }
      ],
      "name": "getPastVotes",
      "outputs": [
        {
          "internalType": "uint256",
          "name": "",
          "type": "uint256"
        }
      ],
      "stateMutability": "view",
      "type": "function"
    },
    {
      "inputs": [
        {
          "internalType": "bytes32",
          "name": "role",
          "type": "bytes32"
        }
      ],
      "name": "getRoleAdmin",
      "outputs": [
        {
          "internalType": "bytes32",
          "name": "",
          "type": "bytes32"
        }
      ],
      "stateMutability": "view",
      "type": "function"
    },
    {
      "inputs": [
        {
          "internalType": "address",
          "name": "account",
          "type": "address"
        }
      ],
      "name": "getVotes",
      "outputs": [
        {
          "internalType": "uint256",
          "name": "",
          "type": "uint256"
        }
      ],
      "stateMutability": "view",
      "type": "function"
    },
    {
      "inputs": [
        {
          "internalType": "bytes32",
          "name": "role",
          "type": "bytes32"
        },
        {
          "internalType": "address",
          "name": "account",
          "type": "address"
        }
      ],
      "name": "grantRole",
      "outputs": [],
      "stateMutability": "nonpayable",
      "type": "function"
    },
    {
      "inputs": [
        {
          "internalType": "bytes32",
          "name": "role",
          "type": "bytes32"
        },
        {
          "internalType": "address",
          "name": "account",
          "type": "address"
        }
      ],
      "name": "hasRole",
      "outputs": [
        {
          "internalType": "bool",
          "name": "",
          "type": "bool"
        }
      ],
      "stateMutability": "view",
      "type": "function"
    },
    {
      "inputs": [
        {
          "internalType": "address",
          "name": "defaultAdmin",
          "type": "address"
        },
        {
          "internalType": "address",
          "name": "pauser",
          "type": "address"
        },
        {
          "internalType": "address",
          "name": "minter",
          "type": "address"
        },
        {
          "internalType": "address",
          "name": "upgrader",
          "type": "address"
        }
      ],
      "name": "initialize",
      "outputs": [],
      "stateMutability": "nonpayable",
      "type": "function"
    },
    {
      "inputs": [
        {
          "internalType": "address",
          "name": "owner",
          "type": "address"
        },
        {
          "internalType": "address",
          "name": "operator",
          "type": "address"
        }
      ],
      "name": "isApprovedForAll",
      "outputs": [
        {
          "internalType": "bool",
          "name": "",
          "type": "bool"
        }
      ],
      "stateMutability": "view",
      "type": "function"
    },
    {
      "inputs": [],
      "name": "name",
      "outputs": [
        {
          "internalType": "string",
          "name": "",
          "type": "string"
        }
      ],
      "stateMutability": "view",
      "type": "function"
    },
    {
      "inputs": [
        {
          "internalType": "address",
          "name": "owner",
          "type": "address"
        }
      ],
      "name": "nonces",
      "outputs": [
        {
          "internalType": "uint256",
          "name": "",
          "type": "uint256"
        }
      ],
      "stateMutability": "view",
      "type": "function"
    },
    {
      "inputs": [
        {
          "internalType": "uint256",
          "name": "tokenId",
          "type": "uint256"
        }
      ],
      "name": "ownerOf",
      "outputs": [
        {
          "internalType": "address",
          "name": "",
          "type": "address"
        }
      ],
      "stateMutability": "view",
      "type": "function"
    },
    {
      "inputs": [],
      "name": "pause",
      "outputs": [],
      "stateMutability": "nonpayable",
      "type": "function"
    },
    {
      "inputs": [],
      "name": "paused",
      "outputs": [
        {
          "internalType": "bool",
          "name": "",
          "type": "bool"
        }
      ],
      "stateMutability": "view",
      "type": "function"
    },
    {
      "inputs": [],
      "name": "proxiableUUID",
      "outputs": [
        {
          "internalType": "bytes32",
          "name": "",
          "type": "bytes32"
        }
      ],
      "stateMutability": "view",
      "type": "function"
    },
    {
      "inputs": [
        {
          "internalType": "bytes32",
          "name": "_ethSignedMessageHash",
          "type": "bytes32"
        },
        {
          "internalType": "bytes",
          "name": "_signature",
          "type": "bytes"
        }
      ],
      "name": "recoverSigner",
      "outputs": [
        {
          "internalType": "address",
          "name": "",
          "type": "address"
        }
      ],
      "stateMutability": "pure",
      "type": "function"
    },
    {
      "inputs": [
        {
          "internalType": "bytes32",
          "name": "role",
          "type": "bytes32"
        },
        {
          "internalType": "address",
          "name": "callerConfirmation",
          "type": "address"
        }
      ],
      "name": "renounceRole",
      "outputs": [],
      "stateMutability": "nonpayable",
      "type": "function"
    },
    {
      "inputs": [
        {
          "internalType": "bytes32",
          "name": "role",
          "type": "bytes32"
        },
        {
          "internalType": "address",
          "name": "account",
          "type": "address"
        }
      ],
      "name": "revokeRole",
      "outputs": [],
      "stateMutability": "nonpayable",
      "type": "function"
    },
    {
      "inputs": [
        {
          "internalType": "address",
          "name": "to",
          "type": "address"
        },
        {
          "internalType": "string",
          "name": "uri",
          "type": "string"
        }
      ],
      "name": "safeMint",
      "outputs": [],
      "stateMutability": "nonpayable",
      "type": "function"
    },
    {
      "inputs": [
        {
          "internalType": "address",
          "name": "from",
          "type": "address"
        },
        {
          "internalType": "address",
          "name": "to",
          "type": "address"
        },
        {
          "internalType": "uint256",
          "name": "tokenId",
          "type": "uint256"
        }
      ],
      "name": "safeTransferFrom",
      "outputs": [],
      "stateMutability": "nonpayable",
      "type": "function"
    },
    {
      "inputs": [
        {
          "internalType": "address",
          "name": "from",
          "type": "address"
        },
        {
          "internalType": "address",
          "name": "to",
          "type": "address"
        },
        {
          "internalType": "uint256",
          "name": "tokenId",
          "type": "uint256"
        },
        {
          "internalType": "bytes",
          "name": "data",
          "type": "bytes"
        }
      ],
      "name": "safeTransferFrom",
      "outputs": [],
      "stateMutability": "nonpayable",
      "type": "function"
    },
    {
      "inputs": [
        {
          "internalType": "address",
          "name": "operator",
          "type": "address"
        },
        {
          "internalType": "bool",
          "name": "approved",
          "type": "bool"
        }
      ],
      "name": "setApprovalForAll",
      "outputs": [],
      "stateMutability": "nonpayable",
      "type": "function"
    },
    {
      "inputs": [
        {
          "internalType": "uint256",
          "name": "tokenId",
          "type": "uint256"
        },
        {
          "internalType": "string",
          "name": "baseURI",
          "type": "string"
        }
      ],
      "name": "setTokenBaseURI",
      "outputs": [],
      "stateMutability": "nonpayable",
      "type": "function"
    },
    {
      "inputs": [
        {
          "internalType": "bytes",
          "name": "sig",
          "type": "bytes"
        }
      ],
      "name": "splitSignature",
      "outputs": [
        {
          "internalType": "bytes32",
          "name": "r",
          "type": "bytes32"
        },
        {
          "internalType": "bytes32",
          "name": "s",
          "type": "bytes32"
        },
        {
          "internalType": "uint8",
          "name": "v",
          "type": "uint8"
        }
      ],
      "stateMutability": "pure",
      "type": "function"
    },
    {
      "inputs": [
        {
          "internalType": "bytes4",
          "name": "interfaceId",
          "type": "bytes4"
        }
      ],
      "name": "supportsInterface",
      "outputs": [
        {
          "internalType": "bool",
          "name": "",
          "type": "bool"
        }
      ],
      "stateMutability": "view",
      "type": "function"
    },
    {
      "inputs": [],
      "name": "symbol",
      "outputs": [
        {
          "internalType": "string",
          "name": "",
          "type": "string"
        }
      ],
      "stateMutability": "view",
      "type": "function"
    },
    {
      "inputs": [
        {
          "internalType": "uint256",
          "name": "index",
          "type": "uint256"
        }
      ],
      "name": "tokenByIndex",
      "outputs": [
        {
          "internalType": "uint256",
          "name": "",
          "type": "uint256"
        }
      ],
      "stateMutability": "view",
      "type": "function"
    },
    {
      "inputs": [
        {
          "internalType": "address",
          "name": "owner",
          "type": "address"
        },
        {
          "internalType": "uint256",
          "name": "index",
          "type": "uint256"
        }
      ],
      "name": "tokenOfOwnerByIndex",
      "outputs": [
        {
          "internalType": "uint256",
          "name": "",
          "type": "uint256"
        }
      ],
      "stateMutability": "view",
      "type": "function"
    },
    {
      "inputs": [
        {
          "internalType": "uint256",
          "name": "tokenId",
          "type": "uint256"
        }
      ],
      "name": "tokenURI",
      "outputs": [
        {
          "internalType": "string",
          "name": "",
          "type": "string"
        }
      ],
      "stateMutability": "view",
      "type": "function"
    },
    {
      "inputs": [],
      "name": "totalSupply",
      "outputs": [
        {
          "internalType": "uint256",
          "name": "",
          "type": "uint256"
        }
      ],
      "stateMutability": "view",
      "type": "function"
    },
    {
      "inputs": [
        {
          "internalType": "address",
          "name": "from",
          "type": "address"
        },
        {
          "internalType": "address",
          "name": "to",
          "type": "address"
        },
        {
          "internalType": "uint256",
          "name": "tokenId",
          "type": "uint256"
        }
      ],
      "name": "transferFrom",
      "outputs": [],
      "stateMutability": "nonpayable",
      "type": "function"
    },
    {
      "inputs": [],
      "name": "unpause",
      "outputs": [],
      "stateMutability": "nonpayable",
      "type": "function"
    },
    {
      "inputs": [
        {
          "internalType": "address",
          "name": "newImplementation",
          "type": "address"
        },
        {
          "internalType": "bytes",
          "name": "data",
          "type": "bytes"
        }
      ],
      "name": "upgradeToAndCall",
      "outputs": [],
      "stateMutability": "payable",
      "type": "function"
    },
    {
      "inputs": [],
      "name": "upgradeV2",
      "outputs": [],
      "stateMutability": "nonpayable",
      "type": "function"
    },
    {
      "inputs": [
        {
          "internalType": "address",
          "name": "_signer",
          "type": "address"
        },
        {
          "internalType": "string",
          "name": "_message",
          "type": "string"
        },
        {
          "internalType": "bytes",
          "name": "signature",
          "type": "bytes"
        }
      ],
      "name": "verify",
      "outputs": [
        {
          "internalType": "bool",
          "name": "",
          "type": "bool"
        }
      ],
      "stateMutability": "pure",
      "type": "function"
    },
    {
      "inputs": [],
      "name": "wasRunning",
      "outputs": [
        {
          "internalType": "bool",
          "name": "",
          "type": "bool"
        }
      ],
      "stateMutability": "view",
      "type": "function"
    }
  ],
  "bytecode": "0x60a0604052306080523480156200001557600080fd5b506200002062000026565b620000da565b7ff0c57e16840df040f15088dc2f81fe391c3923bec73e23a9662efc9c229c6a00805468010000000000000000900460ff1615620000775760405163f92ee8a960e01b815260040160405180910390fd5b80546001600160401b0390811614620000d75780546001600160401b0319166001600160401b0390811782556040519081527fc7f505b2f371ae2175ee4913f4499e1f2633a7b5936321eed1cdaeb6115181d29060200160405180910390a15b50565b608051614a2c6200010460003960008181611ee901528181611f1201526120770152614a2c6000f3fe60806040526004361061031a5760003560e01c80637ecebe00116101ab578063b446f3b2116100f7578063d539139311610095578063e985e9c51161006f578063e985e9c51461099d578063f72c0d8b146109bd578063f8c8765e146109f1578063fa54080114610a1157600080fd5b8063d539139314610939578063d547741f1461095b578063e63ab1e91461097b57600080fd5b8063c7e752be116100d1578063c7e752be146108bf578063c8326f98146108df578063c87b56dd146108f9578063d204c45e1461091957600080fd5b8063b446f3b21461085f578063b88d4fde1461087f578063c3cda5201461089f57600080fd5b806395d89b4111610164578063a217fddf1161013e578063a217fddf146107bb578063a22cb465146107d0578063a7bb5803146107f0578063ad3cb1cc1461082e57600080fd5b806395d89b411461076657806397aba7f91461077b5780639ab24eb01461079b57600080fd5b80637ecebe00146106685780638456cb59146106bd57806384b0196e146106d25780638e539e8c146106fa57806391d148541461071a57806391ddadf41461073a57600080fd5b80633a46b1a81161026a5780634f6ccce7116102235780635c19a95c116101fd5780635c19a95c146105e35780635c975abb146106035780636352211e1461062857806370a082311461064857600080fd5b80634f6ccce71461058e57806352d1902d146105ae578063587cde1e146105c357600080fd5b80633a46b1a8146104f15780633f4ba83a1461051157806342842e0e1461052657806342966c68146105465780634bf5d7e9146105665780634f1ef2861461057b57600080fd5b80631a267c42116102d75780632dd34f0f116102b15780632dd34f0f146104715780632f2ff15d146104915780632f745c59146104b157806336568abe146104d157600080fd5b80631a267c421461041157806323b872dd14610431578063248a9ca31461045157600080fd5b806301ffc9a71461031f57806306fdde0314610354578063081812fc14610376578063092acf93146103ae578063095ea7b3146103c557806318160ddd146103e5575b600080fd5b34801561032b57600080fd5b5061033f61033a366004613f4b565b610a31565b60405190151581526020015b60405180910390f35b34801561036057600080fd5b50610369610a42565b60405161034b9190613fb8565b34801561038257600080fd5b50610396610391366004613fcb565b610ae6565b6040516001600160a01b03909116815260200161034b565b3480156103ba57600080fd5b506103c3610afb565b005b3480156103d157600080fd5b506103c36103e0366004613ffb565b610b61565b3480156103f157600080fd5b50600080516020614997833981519152545b60405190815260200161034b565b34801561041d57600080fd5b506103c361042c3660046140c8565b610b70565b34801561043d57600080fd5b506103c361044c36600461410f565b610d13565b34801561045d57600080fd5b5061040361046c366004613fcb565b610d9e565b34801561047d57600080fd5b5061033f61048c36600461414b565b610dc0565b34801561049d57600080fd5b506103c36104ac3660046141bf565b610e05565b3480156104bd57600080fd5b506104036104cc366004613ffb565b610e21565b3480156104dd57600080fd5b506103c36104ec3660046141bf565b610e95565b3480156104fd57600080fd5b5061040361050c366004613ffb565b610ecd565b34801561051d57600080fd5b506103c3610f60565b34801561053257600080fd5b506103c361054136600461410f565b610f83565b34801561055257600080fd5b506103c3610561366004613fcb565b610f9e565b34801561057257600080fd5b50610369610faa565b6103c36105893660046141eb565b611022565b34801561059a57600080fd5b506104036105a9366004613fcb565b61103d565b3480156105ba57600080fd5b506104036110b5565b3480156105cf57600080fd5b506103966105de366004614223565b6110d2565b3480156105ef57600080fd5b506103c36105fe366004614223565b6110fd565b34801561060f57600080fd5b506000805160206149d78339815191525460ff1661033f565b34801561063457600080fd5b50610396610643366004613fcb565b611108565b34801561065457600080fd5b50610403610663366004614223565b611113565b34801561067457600080fd5b50610403610683366004614223565b6001600160a01b031660009081527f5ab42ced628888259c08ac98db1eb0cf702fc1501344311d8b100cd1bfe4bb00602052604090205490565b3480156106c957600080fd5b506103c361116f565b3480156106de57600080fd5b506106e761118f565b60405161034b979695949392919061423e565b34801561070657600080fd5b50610403610715366004613fcb565b61123b565b34801561072657600080fd5b5061033f6107353660046141bf565b6112b7565b34801561074657600080fd5b5061074f6112ef565b60405165ffffffffffff909116815260200161034b565b34801561077257600080fd5b506103696112fe565b34801561078757600080fd5b506103966107963660046140c8565b61133d565b3480156107a757600080fd5b506104036107b6366004614223565b611382565b3480156107c757600080fd5b50610403600081565b3480156107dc57600080fd5b506103c36107eb3660046142d4565b6113e2565b3480156107fc57600080fd5b5061081061080b366004614310565b6113ed565b60408051938452602084019290925260ff169082015260600161034b565b34801561083a57600080fd5b50610369604051806040016040528060058152602001640352e302e360dc1b81525081565b34801561086b57600080fd5b5061040361087a366004614310565b611461565b34801561088b57600080fd5b506103c361089a366004614345565b611491565b3480156108ab57600080fd5b506103c36108ba3660046143ad565b6114a8565b3480156108cb57600080fd5b506103c36108da3660046140c8565b611565565b3480156108eb57600080fd5b5060015461033f9060ff1681565b34801561090557600080fd5b50610369610914366004613fcb565b6115e9565b34801561092557600080fd5b506103c36109343660046141eb565b611747565b34801561094557600080fd5b5061040360008051602061497783398151915281565b34801561096757600080fd5b506103c36109763660046141bf565b611788565b34801561098757600080fd5b5061040360008051602061495783398151915281565b3480156109a957600080fd5b5061033f6109b836600461440d565b6117a4565b3480156109c957600080fd5b506104037f189ab7a9244df0848122154315af71fe140f3db0fe014031783b0946b8c9d2e381565b3480156109fd57600080fd5b506103c3610a0c366004614437565b6117f1565b348015610a1d57600080fd5b50610403610a2c366004613fcb565b611a24565b6000610a3c82611a5f565b92915050565b6000805160206148f78339815191528054606091908190610a629061448b565b80601f0160208091040260200160405190810160405280929190818152602001828054610a8e9061448b565b8015610adb5780601f10610ab057610100808354040283529160200191610adb565b820191906000526020600020905b815481529060010190602001808311610abe57829003601f168201915b505050505091505090565b6000610af182611a84565b50610a3c82611abc565b60015460ff1615610b535760405162461bcd60e51b815260206004820152601c60248201527f557067726164652077617320616c72656164792072756e6e696e67210000000060448201526064015b60405180910390fd5b6001805460ff191681179055565b610b6c828233611af6565b5050565b6000610b7b83611108565b6001600160a01b031603610bc85760405162461bcd60e51b8152602060048201526014602482015273151bdad95b88191bd95cc81b9bdd08195e1a5cdd60621b6044820152606401610b4a565b610be360008051602061497783398151915261073584611108565b610c275760405162461bcd60e51b8152602060048201526015602482015274151bdad95b88185b1c9958591e4818db185a5b5959605a1b6044820152606401610b4a565b6000610c3561087a84611b03565b90506000610c4282611a24565b90506000610c50828561133d565b90506001600160a01b038116610c9c5760405162461bcd60e51b8152602060048201526011602482015270496e76616c6964207369676e617475726560781b6044820152606401610b4a565b610ca585611108565b6001600160a01b0316816001600160a01b031614610cf95760405162461bcd60e51b8152602060048201526011602482015270496e76616c6964207369676e617475726560781b6044820152606401610b4a565b610d0c610d0586611108565b3387611b96565b5050505050565b6001600160a01b038216610d3d57604051633250574960e11b815260006004820152602401610b4a565b6000610d4a838333611c46565b9050836001600160a01b0316816001600160a01b031614610d98576040516364283d7b60e01b81526001600160a01b0380861660048301526024820184905282166044820152606401610b4a565b50505050565b60009081526000805160206149b7833981519152602052604090206001015490565b600080610dcc84611461565b90506000610dd982611a24565b9050856001600160a01b0316610def828661133d565b6001600160a01b031614925050505b9392505050565b610e0e82610d9e565b610e1781611c5b565b610d988383611c65565b60006000805160206148d7833981519152610e3b84611113565b8310610e6c5760405163295f44f760e21b81526001600160a01b038516600482015260248101849052604401610b4a565b6001600160a01b0384166000908152602091825260408082208583529092522054905092915050565b6001600160a01b0381163314610ebe5760405163334bd91960e11b815260040160405180910390fd5b610ec88282611d0a565b505050565b60006000805160206148b783398151915281610ee76112ef565b90508065ffffffffffff168410610f2257604051637669fc0f60e11b81526004810185905265ffffffffffff82166024820152604401610b4a565b610f4e610f2e85611d86565b6001600160a01b0387166000908152600185016020526040902090611dbd565b6001600160d01b031695945050505050565b600080516020614957833981519152610f7881611c5b565b610f80611e73565b50565b610ec883838360405180602001604052806000815250611491565b610b6c60008233611c46565b6060610fb4611ed3565b65ffffffffffff16610fc46112ef565b65ffffffffffff1614610fea576040516301bfc1c560e61b815260040160405180910390fd5b5060408051808201909152601d81527f6d6f64653d626c6f636b6e756d6265722666726f6d3d64656661756c74000000602082015290565b61102a611ede565b61103382611f85565b610b6c8282611faf565b60006000805160206148d78339815191526110646000805160206149978339815191525490565b831061108d5760405163295f44f760e21b81526000600482015260248101849052604401610b4a565b8060020183815481106110a2576110a26144c5565b9060005260206000200154915050919050565b60006110bf61206c565b5060008051602061493783398151915290565b6001600160a01b0390811660009081526000805160206148b783398151915260205260409020541690565b33610b6c81836120b5565b6000610a3c82611a84565b60006000805160206148f78339815191526001600160a01b03831661114e576040516322718ad960e21b815260006004820152602401610b4a565b6001600160a01b039092166000908152600390920160205250604090205490565b60008051602061495783398151915261118781611c5b565b610f8061213f565b6000606080828080838160008051602061491783398151915280549091501580156111bc57506001810154155b6112005760405162461bcd60e51b81526020600482015260156024820152741152540dcc4c8e88155b9a5b9a5d1a585b1a5e9959605a1b6044820152606401610b4a565b611208612188565b6112106121c7565b60408051600080825260208201909252600f60f81b9c939b5091995046985030975095509350915050565b60006000805160206148b7833981519152816112556112ef565b90508065ffffffffffff16841061129057604051637669fc0f60e11b81526004810185905265ffffffffffff82166024820152604401610b4a565b6112a661129c85611d86565b6002840190611dbd565b6001600160d01b0316949350505050565b60009182526000805160206149b7833981519152602090815260408084206001600160a01b0393909316845291905290205460ff1690565b60006112f9611ed3565b905090565b7f80bb2b638cc20bc4d0a60d66940f3ab4a00c1d7b313497ca82fb0b4ab007930180546060916000805160206148f783398151915291610a629061448b565b60008060008061134c856113ed565b925092509250601b8160ff16101561136c57611369601b826144f1565b90505b61137886828585612206565b9695505050505050565b6001600160a01b03811660009081527fe8b26c30fad74198956032a3533d903385d56dd795af560196f9c78d4af40d01602052604081206000805160206148b7833981519152906113d290612234565b6001600160d01b03169392505050565b610b6c33838361226d565b600080600083516041146114435760405162461bcd60e51b815260206004820152601860248201527f696e76616c6964207369676e6174757265206c656e67746800000000000000006044820152606401610b4a565b50505060208101516040820151606090920151909260009190911a90565b600081604051602001611474919061450a565b604051602081830303815290604052805190602001209050919050565b61149c848484610d13565b610d988484848461231e565b834211156114cc57604051632341d78760e11b815260048101859052602401610b4a565b604080517fe48329057bfd03d55e49b547132e39cffd9c1820ad7b9d4c5307691425d15adf60208201526001600160a01b0388169181019190915260608101869052608081018590526000906115469061153e9060a00160405160208183030381529060405280519060200120612440565b858585612206565b9050611552818761246d565b61155c81886120b5565b50505050505050565b3361156f83611108565b6001600160a01b0316146115d15760405162461bcd60e51b815260206004820152602360248201527f4f6e6c7920746865206f776e65722063616e207365742074686520626173652060448201526255524960e81b6064820152608401610b4a565b6000828152600260205260409020610ec88282614574565b606060006115f683611108565b6001600160a01b0316036116645760405162461bcd60e51b815260206004820152602f60248201527f4552433732314d657461646174613a2055524920717565727920666f72206e6f60448201526e3732bc34b9ba32b73a103a37b5b2b760891b6064820152608401610b4a565b600061166f836124df565b9050600061167c846124ea565b8051909150156117405760006116b98360408051808201825260008082526020918201528151808301909252825182529182019181019190915290565b6040805180820182526007815266697066733a2f2f60c81b60208083019182528351808501855260008082529082018190528451808601909552925184528301529192509061171061170b84846125c7565b6125e6565b90508381604051602001611725929190614634565b60405160208183030381529060405295505050505050919050565b5092915050565b60008051602061497783398151915261175f81611c5b565b60008054818061176e83614663565b91905055905061177e848261264f565b610d988184612669565b61179182610d9e565b61179a81611c5b565b610d988383611d0a565b6001600160a01b0391821660009081527f80bb2b638cc20bc4d0a60d66940f3ab4a00c1d7b313497ca82fb0b4ab00793056020908152604080832093909416825291909152205460ff1690565b7ff0c57e16840df040f15088dc2f81fe391c3923bec73e23a9662efc9c229c6a008054600160401b810460ff16159067ffffffffffffffff166000811580156118375750825b905060008267ffffffffffffffff1660011480156118545750303b155b905081158015611862575080155b156118805760405163f92ee8a960e01b815260040160405180910390fd5b845467ffffffffffffffff1916600117855583156118aa57845460ff60401b1916600160401b1785555b6118ef604051806040016040528060088152602001674c652d537061636560c01b815250604051806040016040528060038152602001624c655360e81b8152506126dc565b6118f76126ee565b6118ff6126ee565b6119076126f6565b61190f6126ee565b6119176126ee565b61195a604051806040016040528060088152602001674c652d537061636560c01b815250604051806040016040528060018152602001603160f81b815250612706565b6119626126ee565b61196a6126ee565b61197560008a611c65565b5061198e60008051602061495783398151915289611c65565b506119a760008051602061497783398151915288611c65565b506119d27f189ab7a9244df0848122154315af71fe140f3db0fe014031783b0946b8c9d2e387611c65565b508315611a1957845460ff60401b19168555604051600181527fc7f505b2f371ae2175ee4913f4499e1f2633a7b5936321eed1cdaeb6115181d29060200160405180910390a15b505050505050505050565b6040517f19457468657265756d205369676e6564204d6573736167653a0a3332000000006020820152603c8101829052600090605c01611474565b60006001600160e01b03198216637965db0b60e01b1480610a3c5750610a3c82612718565b600080611a908361273d565b90506001600160a01b038116610a3c57604051637e27328960e01b815260048101849052602401610b4a565b60009081527f80bb2b638cc20bc4d0a60d66940f3ab4a00c1d7b313497ca82fb0b4ab007930460205260409020546001600160a01b031690565b610ec88383836001612777565b60606000611b108361288d565b600101905060008167ffffffffffffffff811115611b3057611b30614025565b6040519080825280601f01601f191660200182016040528015611b5a576020820181803683370190505b5090508181016020015b600019016f181899199a1a9b1b9c1cb0b131b232b360811b600a86061a8153600a8504945084611b6457509392505050565b6001600160a01b038216611bc057604051633250574960e11b815260006004820152602401610b4a565b6000611bce83836000611c46565b90506001600160a01b038116611bfa57604051637e27328960e01b815260048101839052602401610b4a565b836001600160a01b0316816001600160a01b031614610d98576040516364283d7b60e01b81526001600160a01b0380861660048301526024820184905282166044820152606401610b4a565b6000611c53848484612965565b949350505050565b610f808133612981565b60006000805160206149b7833981519152611c8084846112b7565b611d00576000848152602082815260408083206001600160a01b03871684529091529020805460ff19166001179055611cb63390565b6001600160a01b0316836001600160a01b0316857f2f8788117e7eff1d82e926ec794901d17c78024a50270940304540a733656f0d60405160405180910390a46001915050610a3c565b6000915050610a3c565b60006000805160206149b7833981519152611d2584846112b7565b15611d00576000848152602082815260408083206001600160a01b0387168085529252808320805460ff1916905551339287917ff6391f5c32d9c69d2a47ea670b442974b53935d1edc7fd64eb21e047a839171b9190a46001915050610a3c565b600065ffffffffffff821115611db9576040516306dfcc6560e41b81526030600482015260248101839052604401610b4a565b5090565b815460009081816005811115611e1c576000611dd8846129ba565b611de29085614692565b60008881526020902090915081015465ffffffffffff9081169087161015611e0c57809150611e1a565b611e178160016146a5565b92505b505b6000611e2a87878585612aa2565b90508015611e6557611e4f87611e41600184614692565b600091825260209091200190565b54600160301b90046001600160d01b0316611e68565b60005b979650505050505050565b611e7b612b04565b6000805160206149d7833981519152805460ff191681557f5db9ee0a495bf2e6ff9c91a7834c1ba4fdd244a5e8aa4e537bd38aeae4b073aa335b6040516001600160a01b03909116815260200160405180910390a150565b60006112f943611d86565b306001600160a01b037f0000000000000000000000000000000000000000000000000000000000000000161480611f6557507f00000000000000000000000000000000000000000000000000000000000000006001600160a01b0316611f59600080516020614937833981519152546001600160a01b031690565b6001600160a01b031614155b15611f835760405163703e46dd60e11b815260040160405180910390fd5b565b7f189ab7a9244df0848122154315af71fe140f3db0fe014031783b0946b8c9d2e3610b6c81611c5b565b816001600160a01b03166352d1902d6040518163ffffffff1660e01b8152600401602060405180830381865afa925050508015612009575060408051601f3d908101601f19168201909252612006918101906146b8565b60015b61203157604051634c9c8ce360e01b81526001600160a01b0383166004820152602401610b4a565b600080516020614937833981519152811461206257604051632a87526960e21b815260048101829052602401610b4a565b610ec88383612b34565b306001600160a01b037f00000000000000000000000000000000000000000000000000000000000000001614611f835760405163703e46dd60e11b815260040160405180910390fd5b6000805160206148b783398151915260006120cf846110d2565b6001600160a01b0385811660008181526020869052604080822080546001600160a01b031916898616908117909155905194955093928516927f3134e8a2e6d97e929a7e54011ea5485d7d196dd5f0ba4d4ef95803e8e3fc257f9190a4610d98818461213a87612b8a565b612b95565b612147612d0f565b6000805160206149d7833981519152805460ff191660011781557f62e78cea01bee320cd4e420270b5ea74000d11b0c9f74754ebdbfc544b05a25833611eb5565b7fa16a46d94261c7517cc8ff89f61c0ce93598e3c849801011dee649a6a557d102805460609160008051602061491783398151915291610a629061448b565b7fa16a46d94261c7517cc8ff89f61c0ce93598e3c849801011dee649a6a557d103805460609160008051602061491783398151915291610a629061448b565b60008060008061221888888888612d40565b9250925092506122288282612e0f565b50909695505050505050565b805460009080156122645761224e83611e41600184614692565b54600160301b90046001600160d01b0316610dfe565b60009392505050565b6000805160206148f78339815191526001600160a01b0383166122ae57604051630b61174360e31b81526001600160a01b0384166004820152602401610b4a565b6001600160a01b038481166000818152600584016020908152604080832094881680845294825291829020805460ff191687151590811790915591519182527f17307eab39ab6107e8899845ad3d59bd9653f200f220920489ca2b5937696c31910160405180910390a350505050565b6001600160a01b0383163b15610d9857604051630a85bd0160e11b81526001600160a01b0384169063150b7a02906123609033908890879087906004016146d1565b6020604051808303816000875af192505050801561239b575060408051601f3d908101601f1916820190925261239891810190614704565b60015b612404573d8080156123c9576040519150601f19603f3d011682016040523d82523d6000602084013e6123ce565b606091505b5080516000036123fc57604051633250574960e11b81526001600160a01b0385166004820152602401610b4a565b805181602001fd5b6001600160e01b03198116630a85bd0160e11b14610d0c57604051633250574960e11b81526001600160a01b0385166004820152602401610b4a565b6000610a3c61244d612ec8565b8360405161190160f01b8152600281019290925260228201526042902090565b6001600160a01b03821660009081527f5ab42ced628888259c08ac98db1eb0cf702fc1501344311d8b100cd1bfe4bb0060205260409020805460018101909155818114610ec8576040516301d4b62360e61b81526001600160a01b038416600482015260248101829052604401610b4a565b6060610a3c82612ed2565b6000818152600260205260408120805460609291906125089061448b565b905011156125ae57600082815260026020526040902080546125299061448b565b80601f01602080910402602001604051908101604052809291908181526020018280546125559061448b565b80156125a25780601f10612577576101008083540402835291602001916125a2565b820191906000526020600020905b81548152906001019060200180831161258557829003601f168201915b50505050509050919050565b604080516020810190915260008152610a3c565b919050565b6040805180820190915260008082526020820152611740838383613007565b60606000826000015167ffffffffffffffff81111561260757612607614025565b6040519080825280601f01601f191660200182016040528015612631576020820181803683370190505b509050600060208201905061174081856020015186600001516130b2565b610b6c82826040518060200160405280600081525061312c565b60008281527f0542a41881ee128a365a727b282c86fa859579490b9bb45aab8503648c8e7900602081905260409091206126a38382614574565b506040518381527ff8e1a15aba9398e019f0b49df1a4fde98ee17ae345cb5f6b5e2c27f5033e8ce79060200160405180910390a1505050565b6126e4613143565b610b6c828261318c565b611f83613143565b6126fe613143565b611f836131bd565b61270e613143565b610b6c82826131de565b60006001600160e01b03198216632483248360e11b1480610a3c5750610a3c8261323f565b60009081527f80bb2b638cc20bc4d0a60d66940f3ab4a00c1d7b313497ca82fb0b4ab007930260205260409020546001600160a01b031690565b6000805160206148f7833981519152818061279a57506001600160a01b03831615155b1561285c5760006127aa85611a84565b90506001600160a01b038416158015906127d65750836001600160a01b0316816001600160a01b031614155b80156127e957506127e781856117a4565b155b156128125760405163a9fbf51f60e01b81526001600160a01b0385166004820152602401610b4a565b821561285a5784866001600160a01b0316826001600160a01b03167f8c5be1e5ebec7d5bd14f71427d1e84f3dd0314c0f7b2291e5b200ac8c7c3b92560405160405180910390a45b505b600093845260040160205250506040902080546001600160a01b0319166001600160a01b0392909216919091179055565b60008072184f03e93ff9f4daa797ed6e38ed64bf6a1f0160401b83106128cc5772184f03e93ff9f4daa797ed6e38ed64bf6a1f0160401b830492506040015b6d04ee2d6d415b85acef810000000083106128f8576d04ee2d6d415b85acef8100000000830492506020015b662386f26fc10000831061291657662386f26fc10000830492506010015b6305f5e100831061292e576305f5e100830492506008015b612710831061294257612710830492506004015b60648310612954576064830492506002015b600a8310610a3c5760010192915050565b600080612973858585613264565b9050611c5381866001613279565b61298b82826112b7565b610b6c5760405163e2517d3f60e01b81526001600160a01b038216600482015260248101839052604401610b4a565b6000816000036129cc57506000919050565b600060016129d9846132eb565b901c6001901b905060018184816129f2576129f261467c565b048201901c90506001818481612a0a57612a0a61467c565b048201901c90506001818481612a2257612a2261467c565b048201901c90506001818481612a3a57612a3a61467c565b048201901c90506001818481612a5257612a5261467c565b048201901c90506001818481612a6a57612a6a61467c565b048201901c90506001818481612a8257612a8261467c565b048201901c9050610dfe81828581612a9c57612a9c61467c565b0461337f565b60005b81831015612afc576000612ab98484613395565b60008781526020902090915065ffffffffffff86169082015465ffffffffffff161115612ae857809250612af6565b612af38160016146a5565b93505b50612aa5565b509392505050565b6000805160206149d78339815191525460ff16611f8357604051638dfc202b60e01b815260040160405180910390fd5b612b3d826133b0565b6040516001600160a01b038316907fbc7cd75a20ee27fd9adebab32041f755214dbc6bffa90cc0225b39da2e5c2d3b90600090a2805115612b8257610ec88282613415565b610b6c613482565b6000610a3c82611113565b6000805160206148b78339815191526001600160a01b0384811690841614801590612bc05750600082115b15610d98576001600160a01b03841615612c6a576001600160a01b038416600090815260018201602052604081208190612c05906134a1612c00876134ad565b6134e1565b6001600160d01b031691506001600160d01b03169150856001600160a01b03167fdec2bacdd2f05b59de34da9b523dff8be42e5e38e818c82fdb0bae774387a7248383604051612c5f929190918252602082015260400190565b60405180910390a250505b6001600160a01b03831615610d98576001600160a01b038316600090815260018201602052604081208190612ca59061351a612c00876134ad565b6001600160d01b031691506001600160d01b03169150846001600160a01b03167fdec2bacdd2f05b59de34da9b523dff8be42e5e38e818c82fdb0bae774387a7248383604051612cff929190918252602082015260400190565b60405180910390a2505050505050565b6000805160206149d78339815191525460ff1615611f835760405163d93c066560e01b815260040160405180910390fd5b600080807f7fffffffffffffffffffffffffffffff5d576e7357a4501ddfe92f46681b20a0841115612d7b5750600091506003905082612e05565b604080516000808252602082018084528a905260ff891692820192909252606081018790526080810186905260019060a0016020604051602081039080840390855afa158015612dcf573d6000803e3d6000fd5b5050604051601f1901519150506001600160a01b038116612dfb57506000925060019150829050612e05565b9250600091508190505b9450945094915050565b6000826003811115612e2357612e23614721565b03612e2c575050565b6001826003811115612e4057612e40614721565b03612e5e5760405163f645eedf60e01b815260040160405180910390fd5b6002826003811115612e7257612e72614721565b03612e935760405163fce698f760e01b815260048101829052602401610b4a565b6003826003811115612ea757612ea7614721565b03610b6c576040516335e2f38360e21b815260048101829052602401610b4a565b60006112f9613526565b60607f0542a41881ee128a365a727b282c86fa859579490b9bb45aab8503648c8e7900612efe83611a84565b5060008381526020829052604081208054612f189061448b565b80601f0160208091040260200160405190810160405280929190818152602001828054612f449061448b565b8015612f915780601f10612f6657610100808354040283529160200191612f91565b820191906000526020600020905b815481529060010190602001808311612f7457829003601f168201915b505050505090506000612faf60408051602081019091526000815290565b90508051600003612fc257509392505050565b815115612ff5578082604051602001612fdc929190614634565b6040516020818303038152906040529350505050919050565b612ffe8561359a565b95945050505050565b60408051808201909152600080825260208201526000613039856000015186602001518660000151876020015161360e565b6020808701805191860191909152519091506130559082614692565b83528451602086015161306891906146a5565b810361307757600085526130a9565b8351835161308591906146a5565b85518690613094908390614692565b90525083516130a390826146a5565b60208601525b50909392505050565b602081106130ea57815183526130c96020846146a5565b92506130d66020836146a5565b91506130e3602082614692565b90506130b2565b6000198115613119576001613100836020614692565b61310c9061010061481b565b6131169190614692565b90505b9151835183169219169190911790915250565b6131368383613723565b610ec8600084848461231e565b7ff0c57e16840df040f15088dc2f81fe391c3923bec73e23a9662efc9c229c6a0054600160401b900460ff16611f8357604051631afcd79f60e31b815260040160405180910390fd5b613194613143565b6000805160206148f7833981519152806131ae8482614574565b5060018101610d988382614574565b6131c5613143565b6000805160206149d7833981519152805460ff19169055565b6131e6613143565b6000805160206149178339815191527fa16a46d94261c7517cc8ff89f61c0ce93598e3c849801011dee649a6a557d1026132208482614574565b506003810161322f8382614574565b5060008082556001909101555050565b60006001600160e01b0319821663780e9d6360e01b1480610a3c5750610a3c82613788565b600061326e612d0f565b611c538484846137d8565b6000805160206148b78339815191526001600160a01b0384166132ac576132a98160020161351a612c00856134ad565b50505b6001600160a01b0383166132d0576132cd816002016134a1612c00856134ad565b50505b610d986132dc856110d2565b6132e5856110d2565b84612b95565b600080608083901c1561330057608092831c92015b604083901c1561331257604092831c92015b602083901c1561332457602092831c92015b601083901c1561333657601092831c92015b600883901c1561334857600892831c92015b600483901c1561335a57600492831c92015b600283901c1561336c57600292831c92015b600183901c15610a3c5760010192915050565b600081831061338e5781610dfe565b5090919050565b60006133a46002848418614827565b610dfe908484166146a5565b806001600160a01b03163b6000036133e657604051634c9c8ce360e01b81526001600160a01b0382166004820152602401610b4a565b60008051602061493783398151915280546001600160a01b0319166001600160a01b0392909216919091179055565b6060600080846001600160a01b031684604051613432919061450a565b600060405180830381855af49150503d806000811461346d576040519150601f19603f3d011682016040523d82523d6000602084013e613472565b606091505b5091509150612ffe8583836138d1565b3415611f835760405163b398979f60e01b815260040160405180910390fd5b6000610dfe8284614849565b60006001600160d01b03821115611db9576040516306dfcc6560e41b815260d0600482015260248101839052604401610b4a565b60008061350d6134ef6112ef565b6135056134fb88612234565b868863ffffffff16565b87919061392d565b915091505b935093915050565b6000610dfe8284614869565b60007f8b73c3c69bb8fe3d512ecc4cf759cc79239f7b179b0ffacaa9a75d522b39400f61355161393b565b6135596139a5565b60408051602081019490945283019190915260608201524660808201523060a082015260c00160405160208183030381529060405280519060200120905090565b60606135a582611a84565b5060006135bd60408051602081019091526000815290565b905060008151116135dd5760405180602001604052806000815250610dfe565b806135e784611b03565b6040516020016135f8929190614634565b6040516020818303038152906040529392505050565b6000838186851161371957602085116136c8576000851561365a576001613636876020614692565b613641906008614889565b61364c90600261481b565b6136569190614692565b1990505b8451811660008761366b8b8b6146a5565b6136759190614692565b855190915083165b8281146136ba578186106136a2576136958b8b6146a5565b9650505050505050611c53565b856136ac81614663565b96505083865116905061367d565b859650505050505050611c53565b508383206000905b6136da8689614692565b8211613717578583208082036136f65783945050505050611c53565b6137016001856146a5565b935050818061370f90614663565b9250506136d0565b505b611e6887876146a5565b6001600160a01b03821661374d57604051633250574960e11b815260006004820152602401610b4a565b600061375b83836000611c46565b90506001600160a01b03811615610ec8576040516339e3563760e11b815260006004820152602401610b4a565b60006001600160e01b031982166380ac58cd60e01b14806137b957506001600160e01b03198216635b5e139f60e01b145b80610a3c57506301ffc9a760e01b6001600160e01b0319831614610a3c565b6000806137e68585856139e9565b90506001600160a01b03811661386f5761386a84600080516020614997833981519152805460008381527f645e039705490088daad89bae25049a34f4a9072d398537b1ab2425f24cbed0360205260408120829055600182018355919091527fa42f15e5d656f8155fd7419d740a6073999f19cd6e061449ce4a257150545bf20155565b613892565b846001600160a01b0316816001600160a01b031614613892576138928185613af3565b6001600160a01b0385166138ae576138a984613b97565b611c53565b846001600160a01b0316816001600160a01b031614611c5357611c538585613c6e565b6060826138e6576138e182613cc9565b610dfe565b81511580156138fd57506001600160a01b0384163b155b1561392657604051639996b31560e01b81526001600160a01b0385166004820152602401610b4a565b5080610dfe565b60008061350d858585613cf2565b600060008051602061491783398151915281613955612188565b80519091501561396d57805160209091012092915050565b8154801561397c579392505050565b7fc5d2460186f7233c927e7db2dcc703c0e500b653ca82273b7bfad8045d85a470935050505090565b6000600080516020614917833981519152816139bf6121c7565b8051909150156139d757805160209091012092915050565b6001820154801561397c579392505050565b60006000805160206148f783398151915281613a048561273d565b90506001600160a01b03841615613a2057613a20818587613e6c565b6001600160a01b03811615613a6057613a3d600086600080612777565b6001600160a01b0381166000908152600383016020526040902080546000190190555b6001600160a01b03861615613a91576001600160a01b03861660009081526003830160205260409020805460010190555b600085815260028301602052604080822080546001600160a01b0319166001600160a01b038a811691821790925591518893918516917fddf252ad1be2c89b69c2b068fc378daa952ba7f163c4a11628f55a4df523b3ef91a495945050505050565b6000805160206148d78339815191526000613b0d84611113565b6000848152600184016020526040902054909150808214613b62576001600160a01b03851660009081526020848152604080832085845282528083205484845281842081905583526001860190915290208190555b50600092835260018201602090815260408085208590556001600160a01b039095168452918252838320908352905290812055565b600080516020614997833981519152546000805160206148d783398151915290600090613bc690600190614692565b6000848152600384016020526040812054600285018054939450909284908110613bf257613bf26144c5565b9060005260206000200154905080846002018381548110613c1557613c156144c5565b600091825260208083209091019290925582815260038601909152604080822084905586825281205560028401805480613c5157613c516148a0565b600190038181906000526020600020016000905590555050505050565b6000805160206148d783398151915260006001613c8a85611113565b613c949190614692565b6001600160a01b0390941660009081526020838152604080832087845282528083208690559482526001909301909252502055565b805115613cd95780518082602001fd5b604051630a12f52160e11b815260040160405180910390fd5b825460009081908015613e11576000613d1087611e41600185614692565b60408051808201909152905465ffffffffffff808216808452600160301b9092046001600160d01b031660208401529192509087161015613d6457604051632520601d60e01b815260040160405180910390fd5b805165ffffffffffff808816911603613db05784613d8788611e41600186614692565b80546001600160d01b0392909216600160301b0265ffffffffffff909216919091179055613e01565b6040805180820190915265ffffffffffff80881682526001600160d01b0380881660208085019182528b54600181018d5560008d81529190912094519151909216600160301b029216919091179101555b6020015192508391506135129050565b50506040805180820190915265ffffffffffff80851682526001600160d01b0380851660208085019182528854600181018a5560008a815291822095519251909316600160301b029190931617920191909155905081613512565b613e77838383613ed0565b610ec8576001600160a01b038316613ea557604051637e27328960e01b815260048101829052602401610b4a565b60405163177e802f60e01b81526001600160a01b038316600482015260248101829052604401610b4a565b60006001600160a01b03831615801590611c535750826001600160a01b0316846001600160a01b03161480613f0a5750613f0a84846117a4565b80611c535750826001600160a01b0316613f2383611abc565b6001600160a01b031614949350505050565b6001600160e01b031981168114610f8057600080fd5b600060208284031215613f5d57600080fd5b8135610dfe81613f35565b60005b83811015613f83578181015183820152602001613f6b565b50506000910152565b60008151808452613fa4816020860160208601613f68565b601f01601f19169290920160200192915050565b602081526000610dfe6020830184613f8c565b600060208284031215613fdd57600080fd5b5035919050565b80356001600160a01b03811681146125c257600080fd5b6000806040838503121561400e57600080fd5b61401783613fe4565b946020939093013593505050565b634e487b7160e01b600052604160045260246000fd5b600082601f83011261404c57600080fd5b813567ffffffffffffffff8082111561406757614067614025565b604051601f8301601f19908116603f0116810190828211818310171561408f5761408f614025565b816040528381528660208588010111156140a857600080fd5b836020870160208301376000602085830101528094505050505092915050565b600080604083850312156140db57600080fd5b82359150602083013567ffffffffffffffff8111156140f957600080fd5b6141058582860161403b565b9150509250929050565b60008060006060848603121561412457600080fd5b61412d84613fe4565b925061413b60208501613fe4565b9150604084013590509250925092565b60008060006060848603121561416057600080fd5b61416984613fe4565b9250602084013567ffffffffffffffff8082111561418657600080fd5b6141928783880161403b565b935060408601359150808211156141a857600080fd5b506141b58682870161403b565b9150509250925092565b600080604083850312156141d257600080fd5b823591506141e260208401613fe4565b90509250929050565b600080604083850312156141fe57600080fd5b61420783613fe4565b9150602083013567ffffffffffffffff8111156140f957600080fd5b60006020828403121561423557600080fd5b610dfe82613fe4565b60ff60f81b881681526000602060e08184015261425e60e084018a613f8c565b8381036040850152614270818a613f8c565b606085018990526001600160a01b038816608086015260a0850187905284810360c0860152855180825283870192509083019060005b818110156142c2578351835292840192918401916001016142a6565b50909c9b505050505050505050505050565b600080604083850312156142e757600080fd5b6142f083613fe4565b91506020830135801515811461430557600080fd5b809150509250929050565b60006020828403121561432257600080fd5b813567ffffffffffffffff81111561433957600080fd5b611c538482850161403b565b6000806000806080858703121561435b57600080fd5b61436485613fe4565b935061437260208601613fe4565b925060408501359150606085013567ffffffffffffffff81111561439557600080fd5b6143a18782880161403b565b91505092959194509250565b60008060008060008060c087890312156143c657600080fd5b6143cf87613fe4565b95506020870135945060408701359350606087013560ff811681146143f357600080fd5b9598949750929560808101359460a0909101359350915050565b6000806040838503121561442057600080fd5b61442983613fe4565b91506141e260208401613fe4565b6000806000806080858703121561444d57600080fd5b61445685613fe4565b935061446460208601613fe4565b925061447260408601613fe4565b915061448060608601613fe4565b905092959194509250565b600181811c9082168061449f57607f821691505b6020821081036144bf57634e487b7160e01b600052602260045260246000fd5b50919050565b634e487b7160e01b600052603260045260246000fd5b634e487b7160e01b600052601160045260246000fd5b60ff8181168382160190811115610a3c57610a3c6144db565b6000825161451c818460208701613f68565b9190910192915050565b601f821115610ec857600081815260208120601f850160051c8101602086101561454d5750805b601f850160051c820191505b8181101561456c57828155600101614559565b505050505050565b815167ffffffffffffffff81111561458e5761458e614025565b6145a28161459c845461448b565b84614526565b602080601f8311600181146145d757600084156145bf5750858301515b600019600386901b1c1916600185901b17855561456c565b600085815260208120601f198616915b82811015614606578886015182559484019460019091019084016145e7565b50858210156146245787850151600019600388901b60f8161c191681555b5050505050600190811b01905550565b60008351614646818460208801613f68565b83519083019061465a818360208801613f68565b01949350505050565b600060018201614675576146756144db565b5060010190565b634e487b7160e01b600052601260045260246000fd5b81810381811115610a3c57610a3c6144db565b80820180821115610a3c57610a3c6144db565b6000602082840312156146ca57600080fd5b5051919050565b6001600160a01b038581168252841660208201526040810183905260806060820181905260009061137890830184613f8c565b60006020828403121561471657600080fd5b8151610dfe81613f35565b634e487b7160e01b600052602160045260246000fd5b600181815b80851115614772578160001904821115614758576147586144db565b8085161561476557918102915b93841c939080029061473c565b509250929050565b60008261478957506001610a3c565b8161479657506000610a3c565b81600181146147ac57600281146147b6576147d2565b6001915050610a3c565b60ff8411156147c7576147c76144db565b50506001821b610a3c565b5060208310610133831016604e8410600b84101617156147f5575081810a610a3c565b6147ff8383614737565b8060001904821115614813576148136144db565b029392505050565b6000610dfe838361477a565b60008261484457634e487b7160e01b600052601260045260246000fd5b500490565b6001600160d01b03828116828216039080821115611740576117406144db565b6001600160d01b03818116838216019080821115611740576117406144db565b8082028115828204841417610a3c57610a3c6144db565b634e487b7160e01b600052603160045260246000fdfee8b26c30fad74198956032a3533d903385d56dd795af560196f9c78d4af40d00645e039705490088daad89bae25049a34f4a9072d398537b1ab2425f24cbed0080bb2b638cc20bc4d0a60d66940f3ab4a00c1d7b313497ca82fb0b4ab0079300a16a46d94261c7517cc8ff89f61c0ce93598e3c849801011dee649a6a557d100360894a13ba1a3210667c828492db98dca3e2076cc3735a920a3ca505d382bbc65d7a28e3265b37a6474929f336521b332c1681b933f6cb9f3376673440d862a9f2df0fed2c77648de5860a4cc508cd0818c85b8b8a1ab4ceeef8d981c8956a6645e039705490088daad89bae25049a34f4a9072d398537b1ab2425f24cbed0202dd7bc7dec4dceedda775e58dd541e08a116c6c53815c0bd028192f7b626800cd5ed15c6e187e77e9aee88184c21f4f2182ab5827cb3b7e07fbedcd63f03300a264697066735822122063aa3483754f111be3af1f2b13083f64630b89de49ecc9c89027e9cee41e0a7064736f6c63430008140033",
  "linkReferences": {},
  "deployedLinkReferences": {}
}